:020000040000fa
:080000000002040000000000f2
:020000040000fa
:04000800e202000010
:020000040000fa
:04000c00e20200000c
:020000040000fa
:04001000e202000008
:020000040000fa
:04001400e202000004
:020000040000fa
:04001800e202000000
:020000040000fa
:04001c00e2020000fc
:020000040000fa
:04002000e2020000f8
:020000040000fa
:04002400e2020000f4
:020000040000fa
:04002800e2020000f0
:020000040000fa
:04002c00e2020000ec
:020000040000fa
:04003000c802000002
:020000040000fa
:04003400e2020000e4
:020000040000fa
:04003800e2020000e0
:020000040000fa
:04003c00e2020000dc
:020000040000fa
:04004000e2020000d8
:020000040000fa
:04004400e2020000d4
:020000040000fa
:04004800e2020000d0
:020000040000fa
:04004c00e2020000cc
:020000040000fa
:04005000e2020000c8
:020000040000fa
:04005400e2020000c4
:020000040000fa
:04005800e2020000c0
:020000040000fa
:04005c00e2020000bc
:020000040000fa
:04006000e2020000b8
:020000040000fa
:04006400e2020000b4
:020000040000fa
:04006800e2020000b0
:020000040000fa
:04006c00e2020000ac
:020000040000fa
:04007000e2020000a8
:020000040000fa
:04007400e2020000a4
:020000040000fa
:04007800e2020000a0
:020000040000fa
:04007c00e20200009c
:020000040000fa
:04008000e202000098
:020000040000fa
:04008400e202000094
:020000040000fa
:04008800e202000090
:020000040000fa
:04008c00e20200008c
:020000040000fa
:04009000e202000088
:020000040000fa
:04009400e202000084
:020000040000fa
:04009800e202000080
:020000040000fa
:04009c00e20200007c
:020000040000fa
:0400a000e202000078
:020000040000fa
:0400a400e202000074
:020000040000fa
:0400a800e202000070
:020000040000fa
:0400ac00e20200006c
:020000040000fa
:0400b000e202000068
:020000040000fa
:0400b400e202000064
:020000040000fa
:0400b800e202000060
:020000040000fa
:0400bc00e20200005c
:020000040000fa
:0400c000e202000058
:020000040000fa
:0400c400e202000054
:020000040000fa
:0400c800e202000050
:020000040000fa
:0400cc00e20200004c
:020000040000fa
:0400d000e202000048
:020000040000fa
:0400d400e202000044
:020000040000fa
:0400d800e202000040
:020000040000fa
:0400dc00e20200003c
:020000040000fa
:0400e000e202000038
:020000040000fa
:0400e400e202000034
:020000040000fa
:0400e800e202000030
:020000040000fa
:0400ec00e20200002c
:020000040000fa
:0400f000e202000028
:020000040000fa
:0400f400e202000024
:020000040000fa
:0400f800e202000020
:020000040000fa
:0400fc00e20200001c
:020000040000fa
:04010000e202000017
:020000040000fa
:04010400e202000013
:020000040000fa
:04010800e20200000f
:020000040000fa
:04010c00e20200000b
:020000040000fa
:04011000e202000007
:020000040000fa
:04011400e202000003
:020000040000fa
:04011800e2020000ff
:020000040000fa
:04011c00e2020000fb
:020000040000fa
:04012000e2020000f7
:020000040000fa
:04012400e2020000f3
:020000040000fa
:04012800e2020000ef
:020000040000fa
:04012c00e2020000eb
:020000040000fa
:04013000e2020000e7
:020000040000fa
:04013400e2020000e3
:020000040000fa
:04013800e2020000df
:020000040000fa
:04013c00e2020000db
:020000040000fa
:04014000e2020000d7
:020000040000fa
:04014400e2020000d3
:020000040000fa
:04014800e2020000cf
:020000040000fa
:04014c00e2020000cb
:020000040000fa
:04015000e2020000c7
:020000040000fa
:04015400e2020000c3
:020000040000fa
:04015800e2020000bf
:020000040000fa
:04015c00e2020000bb
:020000040000fa
:04016000e2020000b7
:020000040000fa
:04016400e2020000b3
:020000040000fa
:04016800e2020000af
:020000040000fa
:04020800e20200000e
:020000040000fa
:04020c00e20200000a
:020000040000fa
:04021000e202000006
:020000040000fa
:04021400e202000002
:020000040000fa
:04021800e2020000fe
:020000040000fa
:04021c00e2020000fa
:020000040000fa
:04022000e2020000f6
:020000040000fa
:04022400e2020000f2
:020000040000fa
:04022800e2020000ee
:020000040000fa
:04022c00e2020000ea
:020000040000fa
:04023000e2020000e6
:020000040000fa
:04023400e2020000e2
:020000040000fa
:04023800e2020000de
:020000040000fa
:04023c00e2020000da
:020000040000fa
:04024000e2020000d6
:020000040000fa
:04024400e2020000d2
:020000040000fa
:04024800e2020000ce
:020000040000fa
:04024c00e2020000ca
:020000040000fa
:04025000e2020000c6
:020000040000fa
:04025400e2020000c2
:020000040000fa
:04025800e2020000be
:020000040000fa
:04025c00e2020000ba
:020000040000fa
:04026000e2020000b6
:020000040000fa
:04026400e2020000b2
:020000040000fa
:04026800e2020000ae
:020000040000fa
:04026c00e2020000aa
:020000040000fa
:04027000e2020000a6
:020000040000fa
:04027400e2020000a2
:020000040000fa
:04027800e20200009e
:020000040000fa
:04027c00e20200009a
:020000040000fa
:04028000e202000096
:020000040000fa
:04028400e202000092
:020000040000fa
:04028800e20200008e
:020000040000fa
:04028c00e20200008a
:020000040000fa
:04029000e202000086
:020000040000fa
:04029400e202000082
:020000040000fa
:04029800e20200007e
:020000040000fa
:04029c00e20200007a
:020000040000fa
:0402a000e202000076
:020000040000fa
:0402a400e202000072
:020000040000fa
:0402a800e20200006e
:020000040000fa
:0402ac00e20200006a
:020000040000fa
:0402b000e202000066
:020000040000fa
:0402b400e202000062
:020000040000fa
:0402b800e20200005e
:020000040000fa
:0402bc00e20200005a
:020000040000fa
:0402c000e202000056
:020000040000fa
:0402c400e202000052
:020000040000fa
:0402c800e20200004e
:020000040000fa
:0402cc00e20200004a
:020000040000fa
:0402d000e202000046
:020000040000fa
:0402d400e202000042
:020000040000fa
:0402d800e20200003e
:020000040000fa
:0402dc00e20200003a
:020000040000fa
:0402e000e202000036
:020000040000fa
:0402e400e202000032
:020000040000fa
:0402e800e20200002e
:020000040000fa
:0402ec00e20200002a
:020000040000fa
:0402f000e202000026
:020000040000fa
:0402f400e202000022
:020000040000fa
:0402f800e20200001e
:020000040000fa
:0402fc00e20200001a
:020000040000fa
:04030000e202000015
:020000040000fa
:04030400e202000011
:020000040000fa
:04030800e20200000d
:020000040000fa
:04030c00e202000009
:020000040000fa
:04031000e202000005
:020000040000fa
:04031400e202000001
:020000040000fa
:04031800e2020000fd
:020000040000fa
:04031c00e2020000f9
:020000040000fa
:04032000e2020000f5
:020000040000fa
:04032400e2020000f1
:020000040000fa
:04032800e2020000ed
:020000040000fa
:04032c00e2020000e9
:020000040000fa
:04033000e2020000e5
:020000040000fa
:04033400e2020000e1
:020000040000fa
:04033800e2020000dd
:020000040000fa
:04033c00e2020000d9
:020000040000fa
:04034000e2020000d5
:020000040000fa
:04034400e2020000d1
:020000040000fa
:04034800e2020000cd
:020000040000fa
:04034c00e2020000c9
:020000040000fa
:04035000e2020000c5
:020000040000fa
:04035400e2020000c1
:020000040000fa
:04035800e2020000bd
:020000040000fa
:04035c00e2020000b9
:020000040000fa
:04036000e2020000b5
:020000040000fa
:04036400e2020000b1
:020000040000fa
:04036800e2020000ad
:020000040000fa
:100400002f8020000eff20000e0188000000000059
:10041000000020000000e000020032000001200087
:100420002002880014000700680007000000e000b8
:1004300003003a0040752000010020000200370050
:100440000000200001002000810f70000100320038
:1004500014000700000020000000e000020032004d
:100460000000020000000000ae06020000000000d4
:100470000040da000000fe004440a9000000200017
:100480000000e0000300320000002000a00188000e
:100490004440a800000006008a1f78008b1f7800e7
:1004a0000000060091018800800478000000eb0045
:1004b0001a003700e284440032a0b4009905ba0063
:1004c000e284440032a0b4009906ba00e2844400f9
:1004d00032a0b4000006eb00476fde00fd07b2005b
:1004e000636ce10003003a00ebff07000000eb0043
:1004f0000a003700606ce10004003a00005deb0088
:100500008b05e900fdff3e00040037006168e10053
:10051000010032000086eb000b00070019c7ba008b
:100520001905ba000e04e00003003a000a00e000da
:10053000e0ff3a0000000600fe07b2009e018800be
:100540008a047800f5ff3700395dba008b05e900b1
:100550000c003200295dba008b05e900080032006a
:100560000c00e00003003a00e284440032a0b40032
:10057000f5ff370019ddba008b05e900faff3a00f4
:100580008904e800e184440032a0b40000000600c1
:10059000801f78003400f80000002000a0018800cf
:1005a0000000fa008440a900004080000000e8003c
:1005b000004088000080fa003400f9004f00780005
:1005c000004006000040da000000fe0000000500c8
:1005d000140020006f0037000001be002400070057
:1005e0000470a70003f0a1006509b10016003200f5
:1005f0000d0035006828e10006003500f0ff2f00ef
:10060000f1ff27000300e00013003b000100280079
:100610000000050000004000818048008502e900dc
:10062000fcff3a0008003700f88f420002003c004f
:100630008000eb00000005008100d1000080d300a5
:100640008502e800fcff3a000300e00002003b00e6
:1006500060001000e0801800000006004f89de00f6
:1006600082017800660037006011b800740037001e
:10067000c70ade00f107b200f50fb2000800320031
:10068000e1cf4200020032000170a000240005000a
:10069000810f7000010032000408050044000500cd
:1006a000810f700002003a00140005008502e90085
:1006b0000000400081c04800fcff3b000170a0002a
:1006c00024000500889fbe008a9fbe008c1f780012
:1006d000b0000700b700330003866c006450e100ef
:1006e000240032006420e100270032006150e10064
:1006f000220032006120e100210032008b8542009f
:10070000eb07b1000134b800003ab8000804420019
:1007100089844a00013ab8000030b800888040005f
:1007200009014a00040033000000400081804800b5
:10073000020149008b05e900c909dd008301700051
:100740000100320013002000c814de004814dd0050
:100750004709de001200b200c808de0008847000fd
:100760006600070001f0a1000cf0a70001f0a00056
:10077000990037006120e1009b0032000801be00b3
:100780000200be00f7ff37006150e100fcff3a00b5
:1007900095003700889fbe008a9fbe00841f7800a6
:1007a0007c0007004f00780011003300f0ff2f009d
:1007b000838f6c0006003b00040565000a00a7005b
:1007c0000800370009f0a6001000200008003700dc
:1007d000820f5400838f5c0003003900100020005a
:1007e00001003e000000200009f0a7000000ea0020
:1007f0004f05be004f04be000000e00000000600f0
:10080000881f7800030478000300e00007003d0023
:1008100060001000e080180060011900e0811900fc
:1008200002003b0001f02d00030037000400070028
:1008300008f0a70001f0a0004f04780000000600b7
:10084000889fbe008a9fbe00008270000402710073
:1008500004827100260032000004be000200be00c7
:100860006011b8006b092000950220000182cf00c2
:100870000a0039000541b1000082cf0007003900ad
:100880000541b1000982cf00040039000541b100e3
:100890000882cf00010039000541b1000542520035
:1008a000120032000a003b00828171006101640085
:1008b0008100d1000080d3008984d3000884d30054
:1008c0008b05e8000442e800f7ff3a000700370014
:1008d0000804440089844c000000480081804800de
:1008e0008b05e9000442e900f9ff3a000300070024
:1008f0004f05be004f04be0000000600810020002e
:10090000618055000b003d000b00200061fe2f00b0
:100910000100e1001d00340082817100610164006a
:100920008904d1000884d3000000e800faff3a00ef
:10093000710020006100640003007000020060008c
:100940000900320061044400e0844c000988a500dd
:10095000050032008b05e8006808e10002003a005b
:100960008904d1000884d300f20f20000258e1006e
:1009700005003d00c75ddd00f907b2008980750004
:1009800008007800000006000bf827008b007800b4
:10099000000005000004be0035ff07000003be0094
:1009a0000405be000200be0031ff0700844f750041
:1009b000000006000200be006450e10005003600a1
:1009c0006420e100020036000968a30001003a003b
:1009d0000800be000160a0004f0678004f05be0071
:1009e0004f04be0000000600f0ff2f00f1ff2700bb
:0409f000f9ff3700d4
:020000040000fa
:1009f4000800fa00889fbe008a1f7800200798002c
:100a040031079800103a80004c00de006740600017
:100a14000080fb00100798000000eb00000f780036
:100a24001e0090000000e00014003a0001003700ae
:100a34001e0fe8001e007800cf80de0006ff0700ce
:100a44000004be0002002000a35724002e009000e2
:100a5400be0090001aff07001ac0b3000001be00d8
:100a64000800be00d9fe07000000e00001003500c8
:100a74000045eb000a04e000edff3a001e00900080
:100a8400e70f500014003a00010037001e0fe80081
:100a94001e007800cf80de00effe07000004be00d9
:100aa40002002000a32724002e009000be00900026
:100ab40003ff07001ac0b3000001be000800be0017
:100ac400c2fe07000000e000010035000045eb0015
:100ad4000a04e000edff3a004f0578004f04be0021
:100ae4000080fa00000006001200fa006007980077
:100af40072079800030f98006e009000e10f5000f9
:100b04002e003a00a00c80004200de00000f7800a6
:100b1400a00c80008000eb00d2fe07007e01900054
:100b24008e099000e6fe0700aafe07001007980051
:100b34009e009000b00c8000808f5000170036009b
:100b440007003700b10c80001e00780000804000d0
:100b5400b00c88000000200001f02300a4ff07006f
:100b64009e009000b00c8000808050001e00e900c0
:100b7400808f5000f3ff3e0075003700b10c8000f9
:100b84001e00780000805000b00c88000000200097
:100b940001f0230096ff0700010037000000000069
:100ba400b10c80001e009000808050001e00e900ff
:100bb400808f5000f1ff3e00650037006e0090000a
:100bc400e20f500030003a00f00c80004300de00d9
:100bd40020079800f00c80008000eb00a1fe0700c5
:100be4007e0190008e099000b5fe070079fe070093
:100bf40030079800be009000000d8000808f5000e8
:100c04001800360007003700010d80002e00900008
:100c140000804000000d88000000200001f0230047
:100c240073ff0700be009000000d8000808050001c
:100c34002e0090000000e900808f5000f2ff3e007b
:100c440043003700010d80002e009000008050000a
:100c5400000d88000000200001f0230064ff07005d
:100c64000100370000000000010d80003e009000ec
:100c7400808050002e0090000000e900808f50001a
:100c8400f0ff3e00320037006e009000e30f50008a
:100c94002f003a00400d80004300de00400798001a
:100ca400400d80008000eb006efe07007e01900086
:100cb4008e09900082fe070046fe07005007980048
:100cc400de009000000d8000808f50001800360078
:100cd40007003700510d80004e0090000080400056
:100ce400500d88000000200001f0230040ff0700a1
:100cf400de009000500d8000808050004e00900077
:100d04000000e900808f5000f2ff3e001000370021
:100d1400510d80004e00900000805000500d88005e
:100d24000000200001f0230031ff0700010037001c
:100d340000000000510d80005e0090008080500093
:100d44004e0090000000e900808f5000f0ff3e004c
:100d54000080fa00000006000000fa00c982a90021
:100d64000028ef009021ef009221ef009621ef0080
:100d7400f0f32100a00c8800810c800000c0210049
:100d840001007000800c8800900c8000f001b3001a
:100d9400900c880092e1a900810c800080ff2f0054
:100da400008060006000b300800c88009440a800bc
:100db4000028ef00cd82a8000200200003f02300e9
:100dc4001000200048ff07000000000000408000e1
:100dd4000000e0000400350001408000f0312000f4
:100de400808f5000f9ff34006011b800100020001b
:100df4003dff07000000200001f82300fcfe07006f
:100e0400cd82a9000200200003f02300100020007e
:100e140035ff07000000000001408000f031200091
:100e2400808f50000400340001408000b044200052
:100e3400808f5000f8ff34006011b80010002000cb
:100e440029ff07000000200001f82300e8fe070046
:100e5400cd82a8000200200003f02300100020002f
:100e640021ff07000000000001408000b044200082
:100e7400808f50000400340001408000b0762000d0
:100e8400808f5000f8ff34006011b800100020007b
:100e940015ff070000002000010a2400d4fe07000b
:040ea400c3ff370051
:020000040000fa
:100ea8000008000002000000000000000000000030
:020000040000fa
:0200000401f009
:04000c00f8ff0000f9
:00000001FF
