:020000040000fa
:080000000002040000000000f2
:020000040000fa
:04000800c80200002a
:020000040000fa
:04000c00c802000026
:020000040000fa
:04001000c802000022
:020000040000fa
:04001400c80200001e
:020000040000fa
:04001800c80200001a
:020000040000fa
:04001c00c802000016
:020000040000fa
:04002000c802000012
:020000040000fa
:04002400c80200000e
:020000040000fa
:04002800c80200000a
:020000040000fa
:04002c00c802000006
:020000040000fa
:04003000c802000002
:020000040000fa
:04003400c8020000fe
:020000040000fa
:04003800c8020000fa
:020000040000fa
:04003c00c8020000f6
:020000040000fa
:04004000c8020000f2
:020000040000fa
:04004400c8020000ee
:020000040000fa
:04004800c8020000ea
:020000040000fa
:04004c00c8020000e6
:020000040000fa
:04005000c8020000e2
:020000040000fa
:04005400c8020000de
:020000040000fa
:04005800c8020000da
:020000040000fa
:04005c00c8020000d6
:020000040000fa
:04006000c8020000d2
:020000040000fa
:04006400c8020000ce
:020000040000fa
:04006800c8020000ca
:020000040000fa
:04006c00c8020000c6
:020000040000fa
:04007000c8020000c2
:020000040000fa
:04007400c8020000be
:020000040000fa
:04007800c8020000ba
:020000040000fa
:04007c00c8020000b6
:020000040000fa
:04008000c8020000b2
:020000040000fa
:04008400c8020000ae
:020000040000fa
:04008800c8020000aa
:020000040000fa
:04008c00c8020000a6
:020000040000fa
:04009000c8020000a2
:020000040000fa
:04009400c80200009e
:020000040000fa
:04009800c80200009a
:020000040000fa
:04009c00c802000096
:020000040000fa
:0400a000c802000092
:020000040000fa
:0400a400c80200008e
:020000040000fa
:0400a800c80200008a
:020000040000fa
:0400ac00c802000086
:020000040000fa
:0400b000c802000082
:020000040000fa
:0400b400c80200007e
:020000040000fa
:0400b800c80200007a
:020000040000fa
:0400bc00c802000076
:020000040000fa
:0400c000c802000072
:020000040000fa
:0400c400c80200006e
:020000040000fa
:0400c800c80200006a
:020000040000fa
:0400cc00c802000066
:020000040000fa
:0400d000c802000062
:020000040000fa
:0400d400c80200005e
:020000040000fa
:0400d800c80200005a
:020000040000fa
:0400dc00c802000056
:020000040000fa
:0400e000c802000052
:020000040000fa
:0400e400c80200004e
:020000040000fa
:0400e800c80200004a
:020000040000fa
:0400ec00c802000046
:020000040000fa
:0400f000c802000042
:020000040000fa
:0400f400c80200003e
:020000040000fa
:0400f800c80200003a
:020000040000fa
:0400fc00c802000036
:020000040000fa
:04010000c802000031
:020000040000fa
:04010400c80200002d
:020000040000fa
:04010800c802000029
:020000040000fa
:04010c00c802000025
:020000040000fa
:04011000c802000021
:020000040000fa
:04011400c80200001d
:020000040000fa
:04011800c802000019
:020000040000fa
:04011c00c802000015
:020000040000fa
:04012000c802000011
:020000040000fa
:04012400c80200000d
:020000040000fa
:04012800c802000009
:020000040000fa
:04012c00c802000005
:020000040000fa
:04013000c802000001
:020000040000fa
:04013400c8020000fd
:020000040000fa
:04013800c8020000f9
:020000040000fa
:04013c00c8020000f5
:020000040000fa
:04014000c8020000f1
:020000040000fa
:04014400c8020000ed
:020000040000fa
:04014800c8020000e9
:020000040000fa
:04014c00c8020000e5
:020000040000fa
:04015000c8020000e1
:020000040000fa
:04015400c8020000dd
:020000040000fa
:04015800c8020000d9
:020000040000fa
:04015c00c8020000d5
:020000040000fa
:04016000c8020000d1
:020000040000fa
:04016400c8020000cd
:020000040000fa
:04016800c8020000c9
:020000040000fa
:04020800c802000028
:020000040000fa
:04020c00c802000024
:020000040000fa
:04021000c802000020
:020000040000fa
:04021400c80200001c
:020000040000fa
:04021800c802000018
:020000040000fa
:04021c00c802000014
:020000040000fa
:04022000c802000010
:020000040000fa
:04022400c80200000c
:020000040000fa
:04022800c802000008
:020000040000fa
:04022c00c802000004
:020000040000fa
:04023000c802000000
:020000040000fa
:04023400c8020000fc
:020000040000fa
:04023800c8020000f8
:020000040000fa
:04023c00c8020000f4
:020000040000fa
:04024000c8020000f0
:020000040000fa
:04024400c8020000ec
:020000040000fa
:04024800c8020000e8
:020000040000fa
:04024c00c8020000e4
:020000040000fa
:04025000c8020000e0
:020000040000fa
:04025400c8020000dc
:020000040000fa
:04025800c8020000d8
:020000040000fa
:04025c00c8020000d4
:020000040000fa
:04026000c8020000d0
:020000040000fa
:04026400c8020000cc
:020000040000fa
:04026800c8020000c8
:020000040000fa
:04026c00c8020000c4
:020000040000fa
:04027000c8020000c0
:020000040000fa
:04027400c8020000bc
:020000040000fa
:04027800c8020000b8
:020000040000fa
:04027c00c8020000b4
:020000040000fa
:04028000c8020000b0
:020000040000fa
:04028400c8020000ac
:020000040000fa
:04028800c8020000a8
:020000040000fa
:04028c00c8020000a4
:020000040000fa
:04029000c8020000a0
:020000040000fa
:04029400c80200009c
:020000040000fa
:04029800c802000098
:020000040000fa
:04029c00c802000094
:020000040000fa
:0402a000c802000090
:020000040000fa
:0402a400c80200008c
:020000040000fa
:0402a800c802000088
:020000040000fa
:0402ac00c802000084
:020000040000fa
:0402b000c802000080
:020000040000fa
:0402b400c80200007c
:020000040000fa
:0402b800c802000078
:020000040000fa
:0402bc00c802000074
:020000040000fa
:0402c000c802000070
:020000040000fa
:0402c400c80200006c
:020000040000fa
:0402c800c802000068
:020000040000fa
:0402cc00c802000064
:020000040000fa
:0402d000c802000060
:020000040000fa
:0402d400c80200005c
:020000040000fa
:0402d800c802000058
:020000040000fa
:0402dc00c802000054
:020000040000fa
:0402e000c802000050
:020000040000fa
:0402e400c80200004c
:020000040000fa
:0402e800c802000048
:020000040000fa
:0402ec00c802000044
:020000040000fa
:0402f000c802000040
:020000040000fa
:0402f400c80200003c
:020000040000fa
:0402f800c802000038
:020000040000fa
:0402fc00c802000034
:020000040000fa
:04030000c80200002f
:020000040000fa
:04030400c80200002b
:020000040000fa
:04030800c802000027
:020000040000fa
:04030c00c802000023
:020000040000fa
:04031000c80200001f
:020000040000fa
:04031400c80200001b
:020000040000fa
:04031800c802000017
:020000040000fa
:04031c00c802000013
:020000040000fa
:04032000c80200000f
:020000040000fa
:04032400c80200000b
:020000040000fa
:04032800c802000007
:020000040000fa
:04032c00c802000003
:020000040000fa
:04033000c8020000ff
:020000040000fa
:04033400c8020000fb
:020000040000fa
:04033800c8020000f7
:020000040000fa
:04033c00c8020000f3
:020000040000fa
:04034000c8020000ef
:020000040000fa
:04034400c8020000eb
:020000040000fa
:04034800c8020000e7
:020000040000fa
:04034c00c8020000e3
:020000040000fa
:04035000c8020000df
:020000040000fa
:04035400c8020000db
:020000040000fa
:04035800c8020000d7
:020000040000fa
:04035c00c8020000d3
:020000040000fa
:04036000c8020000cf
:020000040000fa
:04036400c8020000cb
:020000040000fa
:04036800c8020000c7
:020000040000fa
:100400002f8020000eff20000e0188000000000059
:10041000000020000000e000020032000001200087
:1004200020028800140007005b0007000000e000c5
:1004300003003a0040812000010020000200370044
:100440000000200001002000810f70000100320038
:1004500014000700000020000000e000020032004d
:1004600000000200000000004c0702000000000035
:100470000040da000000fe004440a9000000200017
:100480000000e0000300320000002000a00188000e
:100490004440a800000006008a1f78008b1f7800e7
:1004a0000000060091018800800478000000eb0045
:1004b0001a003700e284440032a0b4009905ba0063
:1004c000e284440032a0b4009906ba00e2844400f9
:1004d00032a0b4000006eb00476fde00fd07b2005b
:1004e000636ce10003003a00ebff07000000eb0043
:1004f0000a003700606ce10004003a00005deb0088
:100500008b05e900fdff3e00040037006168e10053
:10051000010032000086eb000b00070019c7ba008b
:100520001905ba000e04e00003003a000a00e000da
:10053000e0ff3a0000000600fe07b2009e018800be
:100540008a047800f5ff3700395dba008b05e900b1
:100550000c003200295dba008b05e900080032006a
:100560000c00e00003003a00e284440032a0b40032
:10057000f5ff370019ddba008b05e900faff3a00f4
:100580008904e800e184440032a0b40000000600c1
:100590000040da000000fe0000000500140020000a
:1005a0006f0037000001be00240007000470a700a0
:1005b00003f0a1006509b100160032000d003500fe
:1005c0006828e10006003500f0ff2f00f1ff27004a
:1005d0000300e00013003b000100280000000500bc
:1005e00000004000818048008502e900fcff3a00dd
:1005f00008003700f88f420002003c008000eb004a
:10060000000005008100d1000080d3008502e800d1
:10061000fcff3a000300e00002003b006000100015
:10062000e0801800000006004f89de00820178009b
:10063000660037006011b80074003700c70ade009a
:10064000f107b200f50fb20008003200e1cf42001e
:10065000020032000170a00024000500810f70002c
:10066000010032000408050044000500810f7000fd
:1006700002003a00140005008502e9000000400075
:1006800081c04800fcff3b000170a0002400050071
:10069000889fbe008a9fbe008c1f7800b0000700b4
:1006a000b700330003866c006450e1002400320080
:1006b0006420e100270032006150e1002200320096
:1006c0006120e100210032008b854200eb07b10080
:1006d0000134b800003ab8000804420089844a0096
:1006e000013ab8000030b8008880400009014a0093
:1006f00004003300000040008180480002014900ee
:100700008b05e900c909dd0083017000010032009a
:1007100013002000c814de004814dd004709de0085
:100720001200b200c808de000884700066000700ee
:1007300001f0a1000cf0a70001f0a0009900370023
:100740006120e1009b0032000801be000200be00f3
:10075000f7ff37006150e100fcff3a0095003700d9
:10076000889fbe008a9fbe00841f78007c0007001f
:100770004f00780011003300f0ff2f00838f6c00d2
:1007800006003b00040565000a00a70008003700ca
:1007900009f0a6001000200008003700820f540066
:1007a000838f5c00030039001000200001003e0030
:1007b0000000200009f0a7000000ea004f05be007d
:1007c0004f04be000000e00000000600881f780013
:1007d000030478000300e00007003d006000100003
:1007e000e080180060011900e081190002003b0060
:1007f00001f02d00030037000400070008f0a700f7
:1008000001f0a0004f04780000000600889fbe00a1
:100810008a9fbe0000827000040271000482710091
:10082000260032000004be000200be006011b800c5
:100830006b092000950220000182cf000a003900d8
:100840000541b1000082cf00070039000541b10029
:100850000982cf00040039000541b1000882cf00b1
:10086000010039000541b10005425200120032007a
:100870000a003b0082817100610164008100d100a7
:100880000080d3008984d3000884d3008b05e8005e
:100890000442e800f7ff3a0007003700080444006c
:1008a00089844c0000004800818048008b05e900e5
:1008b0000442e900f9ff3a00030007004f05be00bb
:1008c0004f04be000000060081002000618055003a
:1008d0000b003d000b00200061fe2f000100e10035
:1008e0001d00340082817100610164008904d1001f
:1008f0000884d3000000e800faff3a0071002000ed
:100900006100640003007000020060000900320012
:1009100061044400e0844c000988a5000500320011
:100920008b05e8006808e10002003a008904d10064
:100930000884d300f20f20000258e10005003d00ba
:10094000c75ddd00f907b2008980750008007800f6
:10095000000006000bf827008b007800000005005f
:100960000004be0035ff07000003be000405be0002
:100970000200be0031ff0700844f75000000060032
:100980000200be006450e100050036006420e10072
:10099000020036000968a30001003a000800be000a
:1009a0000160a0004f0678004f05be004f04be0056
:1009b00000000600f0ff2f00f1ff2700f9ff3700cd
:020000040000fa
:1009c0000800fa00889fbe008a1f78002007980060
:1009d00031079800103a80004c00de00674060004c
:1009e0000080fb00100798000000eb00000f78006b
:1009f0001e0090000000e00014003a0001003700e3
:100a00001e0fe8001e007800cf80de0006ff070002
:100a10000004be0002002000a35724002e00900016
:100a2000be0090001aff07001ac0b3000001be000c
:100a30000800be00d9fe07000000e00001003500fc
:100a40000045eb000a04e000edff3a001e009000b4
:100a5000e70f500014003a00010037001e0fe800b5
:100a60001e007800cf80de00effe07000004be000d
:100a700002002000a32724002e009000be0090005a
:100a800003ff07001ac0b3000001be000800be004b
:100a9000c2fe07000000e000010035000045eb0049
:100aa0000a04e000edff3a004f0578004f04be0055
:100ab0000080fa00000006000a00fa0030079800e3
:100ac000410798003e009000e10f50004e003a00b0
:100ad000a00c80004200de00000f7800ce009000e5
:100ae000a00c8000808f50003400360010003700ca
:100af000a10c80001e00780000804000a00c88003f
:100b0000a00c80008000eb00cafe0700020020005d
:100b100003f02300defe0700a2fe070000007800bd
:100b2000b00c88000000200001f02300a4ff0700a3
:100b3000ce009000a00c8000808050001e00e900d4
:100b4000808f5000eaff3e004e009000a00c88000d
:100b5000a00c80008000eb00b6fe07000200200021
:100b600003f02300cafe07008efe07000000780095
:100b7000b00c8800c6003700a10c80001e00780071
:100b800000805000a00c8800a00c80008000eb00ca
:100b9000a8fe07000200200003f02300bcfe0700af
:100ba00080fe070000007800b00c880000002000e4
:100bb00001f0230082ff0700010037000000000061
:100bc000a10c80004e009000808050001e00e900c3
:100bd000808f5000e8ff3e004e009000a00c88007f
:100be000a00c80008000eb0092fe070002002000b5
:100bf00003f02300a6fe07006afe0700000078004d
:100c0000b00c8800a20037003e009000e20f5000b8
:100c100050003a00f00c80004200de0010079800ff
:100c2000ce009000f00c8000808f50003500360020
:100c300010003700f10c80001e0090000080400082
:100c4000f00c8800f00c80008000eb0079fe0700bb
:100c50000200200003f023008dfe070051fe070074
:100c600000007800000d88000000200001f0230043
:100c700053ff0700ce009000f00c800080805000f1
:100c80001e0090000000e900808f5000e9ff3e0048
:100c90004e009000f00c8800f00c80008000eb000b
:100ca00064fe07000200200003f0230078fe070026
:100cb0003cfe070000007800000d8800740037003b
:100cc000f10c80001e00900000805000f00c8800a5
:100cd000f00c80008000eb0056fe070002002000b0
:100ce00003f023006afe07002efe070000007800d4
:100cf000000d88000000200001f0230030ff0700f5
:100d00000100370000000000f10c80004e00900050
:100d1000808050001e0090000000e900808f50008d
:100d2000e7ff3e004e009000f00c8800f00c8000c1
:100d30008000eb003ffe07000200200003f02300cc
:100d400053fe070017fe070000007800000d880022
:100d50004f003700400d80004200de002007980061
:100d6000ce009000400d8000808f5000350036008e
:100d700010003700410d80002e00900000804000e0
:100d8000400d8800400d80008000eb0029fe070028
:100d90000200200003f023003dfe070001fe0700d3
:100da00000007800500d88000000200001f02300b2
:100db00003ff0700ce009000400d800080805000af
:100dc0002e0090000000e900808f5000e9ff3e00f7
:100dd0004e009000400d8800400d80008000eb0028
:100de00014fe07000200200003f0230028fe070085
:100df000ecfd070000007800500d8800240037004b
:100e0000410d80002e00900000805000400d8800b1
:100e1000400d80008000eb0006fe0700020020006d
:100e200003f023001afe0700defd07000000780033
:100e3000500d88000000200001f02300e0fe0700b4
:100e40000100370000000000410d80004e009000be
:100e5000808050002e0090000000e900808f50003c
:100e6000e7ff3e004e009000400d8800400d8000de
:100e70008000eb00effd07000200200003f02300dc
:100e800003fe0700c7fd070000007800500d880032
:100e90000080fa00000006000600fa00213a8000f7
:100ea000f08f2f0080806000006020000100700043
:100eb000203a8800a421ef00a621ef00e0052000e1
:100ec000500d8800204e2000400d8800210d80002c
:100ed00000c0210001007000200d8800300d80004e
:100ee000f001b300300d8800a6e1a900210d8000bb
:100ef00080ff2f00008060006000b300200d88009c
:100f0000c022a800e024a900111a8000f0ff2300ed
:100f100000806000101a880043a3a9004463ef001a
:100f2000011a8000f0f02f00808060000007200090
:100f300001007000001a88004043a800211a8000b8
:100f4000f00f2e00008060000080a000201a8800b2
:100f50004343a8005003a8004143a800011a8000a1
:100f6000f0cf2f0000806000001a88004363a800c3
:100f7000111a800030f82f00008060000030a000bf
:100f8000101a880041e3a800c0c2a900c4c2a90089
:100f9000c022a900c422a900e024a9002003200047
:100fa000000f7800e00620001007980001003700cd
:100fb0000000000000188000200798001e00780044
:100fc000500d8800c422a900ae009000401f2000f0
:100fd000808f5000f6ff34000000200001f823004d
:100fe00077fe0700c4c2a8001e009000500d8800c4
:100ff0000000200001f8230071fe0700c4c2a90010
:101000001e007800500d88000000200001f8230029
:101010006bfe0700c422a8000000200001f8230096
:0810200067fe0700e3ff370043
:020000040000fa
:1010280000080000020000000000000000000000ae
:020000040000fa
:0200000401f009
:04000c00ffff0000f2
:00000001FF
