:020000040000fa
:080000000002040000000000f2
:020000040000fa
:0400080006030000eb
:020000040000fa
:04000c0006030000e7
:020000040000fa
:0400100006030000e3
:020000040000fa
:0400140006030000df
:020000040000fa
:0400180006030000db
:020000040000fa
:04001c0006030000d7
:020000040000fa
:0400200006030000d3
:020000040000fa
:0400240006030000cf
:020000040000fa
:0400280006030000cb
:020000040000fa
:04002c0006030000c7
:020000040000fa
:04003000c802000002
:020000040000fa
:0400340006030000bf
:020000040000fa
:0400380006030000bb
:020000040000fa
:04003c0006030000b7
:020000040000fa
:0400400006030000b3
:020000040000fa
:0400440006030000af
:020000040000fa
:0400480006030000ab
:020000040000fa
:04004c0006030000a7
:020000040000fa
:0400500006030000a3
:020000040000fa
:04005400060300009f
:020000040000fa
:04005800060300009b
:020000040000fa
:04005c000603000097
:020000040000fa
:040060000603000093
:020000040000fa
:04006400060300008f
:020000040000fa
:04006800060300008b
:020000040000fa
:04006c000603000087
:020000040000fa
:040070000603000083
:020000040000fa
:04007400e2020000a4
:020000040000fa
:04007800060300007b
:020000040000fa
:04007c000603000077
:020000040000fa
:040080000603000073
:020000040000fa
:04008400060300006f
:020000040000fa
:04008800060300006b
:020000040000fa
:04008c000603000067
:020000040000fa
:040090000603000063
:020000040000fa
:04009400060300005f
:020000040000fa
:04009800060300005b
:020000040000fa
:04009c000603000057
:020000040000fa
:0400a0000603000053
:020000040000fa
:0400a400060300004f
:020000040000fa
:0400a800060300004b
:020000040000fa
:0400ac000603000047
:020000040000fa
:0400b0000603000043
:020000040000fa
:0400b400060300003f
:020000040000fa
:0400b800060300003b
:020000040000fa
:0400bc000603000037
:020000040000fa
:0400c0000603000033
:020000040000fa
:0400c400060300002f
:020000040000fa
:0400c800060300002b
:020000040000fa
:0400cc000603000027
:020000040000fa
:0400d0000603000023
:020000040000fa
:0400d400060300001f
:020000040000fa
:0400d800060300001b
:020000040000fa
:0400dc000603000017
:020000040000fa
:0400e0000603000013
:020000040000fa
:0400e400060300000f
:020000040000fa
:0400e800060300000b
:020000040000fa
:0400ec000603000007
:020000040000fa
:0400f0000603000003
:020000040000fa
:0400f40006030000ff
:020000040000fa
:0400f80006030000fb
:020000040000fa
:0400fc0006030000f7
:020000040000fa
:0401000006030000f2
:020000040000fa
:0401040006030000ee
:020000040000fa
:0401080006030000ea
:020000040000fa
:04010c0006030000e6
:020000040000fa
:0401100006030000e2
:020000040000fa
:0401140006030000de
:020000040000fa
:0401180006030000da
:020000040000fa
:04011c0006030000d6
:020000040000fa
:0401200006030000d2
:020000040000fa
:0401240006030000ce
:020000040000fa
:0401280006030000ca
:020000040000fa
:04012c0006030000c6
:020000040000fa
:0401300006030000c2
:020000040000fa
:0401340006030000be
:020000040000fa
:0401380006030000ba
:020000040000fa
:04013c0006030000b6
:020000040000fa
:0401400006030000b2
:020000040000fa
:0401440006030000ae
:020000040000fa
:0401480006030000aa
:020000040000fa
:04014c0006030000a6
:020000040000fa
:0401500006030000a2
:020000040000fa
:04015400060300009e
:020000040000fa
:04015800060300009a
:020000040000fa
:04015c000603000096
:020000040000fa
:040160000603000092
:020000040000fa
:04016400060300008e
:020000040000fa
:04016800060300008a
:020000040000fa
:0402080006030000e9
:020000040000fa
:04020c0006030000e5
:020000040000fa
:0402100006030000e1
:020000040000fa
:0402140006030000dd
:020000040000fa
:0402180006030000d9
:020000040000fa
:04021c0006030000d5
:020000040000fa
:0402200006030000d1
:020000040000fa
:0402240006030000cd
:020000040000fa
:0402280006030000c9
:020000040000fa
:04022c0006030000c5
:020000040000fa
:0402300006030000c1
:020000040000fa
:0402340006030000bd
:020000040000fa
:0402380006030000b9
:020000040000fa
:04023c0006030000b5
:020000040000fa
:0402400006030000b1
:020000040000fa
:0402440006030000ad
:020000040000fa
:0402480006030000a9
:020000040000fa
:04024c0006030000a5
:020000040000fa
:0402500006030000a1
:020000040000fa
:04025400060300009d
:020000040000fa
:040258000603000099
:020000040000fa
:04025c000603000095
:020000040000fa
:040260000603000091
:020000040000fa
:04026400060300008d
:020000040000fa
:040268000603000089
:020000040000fa
:04026c000603000085
:020000040000fa
:040270000603000081
:020000040000fa
:04027400060300007d
:020000040000fa
:040278000603000079
:020000040000fa
:04027c000603000075
:020000040000fa
:040280000603000071
:020000040000fa
:04028400060300006d
:020000040000fa
:040288000603000069
:020000040000fa
:04028c000603000065
:020000040000fa
:040290000603000061
:020000040000fa
:04029400060300005d
:020000040000fa
:040298000603000059
:020000040000fa
:04029c000603000055
:020000040000fa
:0402a0000603000051
:020000040000fa
:0402a400060300004d
:020000040000fa
:0402a8000603000049
:020000040000fa
:0402ac000603000045
:020000040000fa
:0402b0000603000041
:020000040000fa
:0402b400060300003d
:020000040000fa
:0402b8000603000039
:020000040000fa
:0402bc000603000035
:020000040000fa
:0402c0000603000031
:020000040000fa
:0402c400060300002d
:020000040000fa
:0402c8000603000029
:020000040000fa
:0402cc000603000025
:020000040000fa
:0402d0000603000021
:020000040000fa
:0402d400060300001d
:020000040000fa
:0402d8000603000019
:020000040000fa
:0402dc000603000015
:020000040000fa
:0402e0000603000011
:020000040000fa
:0402e400060300000d
:020000040000fa
:0402e8000603000009
:020000040000fa
:0402ec000603000005
:020000040000fa
:0402f0000603000001
:020000040000fa
:0402f40006030000fd
:020000040000fa
:0402f80006030000f9
:020000040000fa
:0402fc0006030000f5
:020000040000fa
:0403000006030000f0
:020000040000fa
:0403040006030000ec
:020000040000fa
:0403080006030000e8
:020000040000fa
:04030c0006030000e4
:020000040000fa
:0403100006030000e0
:020000040000fa
:0403140006030000dc
:020000040000fa
:0403180006030000d8
:020000040000fa
:04031c0006030000d4
:020000040000fa
:0403200006030000d0
:020000040000fa
:0403240006030000cc
:020000040000fa
:0403280006030000c8
:020000040000fa
:04032c0006030000c4
:020000040000fa
:0403300006030000c0
:020000040000fa
:0403340006030000bc
:020000040000fa
:0403380006030000b8
:020000040000fa
:04033c0006030000b4
:020000040000fa
:0403400006030000b0
:020000040000fa
:0403440006030000ac
:020000040000fa
:0403480006030000a8
:020000040000fa
:04034c0006030000a4
:020000040000fa
:0403500006030000a0
:020000040000fa
:04035400060300009c
:020000040000fa
:040358000603000098
:020000040000fa
:04035c000603000094
:020000040000fa
:040360000603000090
:020000040000fa
:04036400060300008c
:020000040000fa
:040368000603000088
:020000040000fa
:100400002f8120000eff20000e0188000000000058
:10041000000020000000e000020032000001200087
:1004200020028800140007007a0007000000e000a6
:1004300003003a00e099200001002000020037008c
:100440000000200001002000810f70000100320038
:1004500014000700000020000000e000020032004d
:100460000000020000000000ac08020000000000d4
:100470000040da000000fe004440a9000000200017
:100480000000e0000300320000002000a00188000e
:100490004440a800000006008a1f78008b1f7800e7
:1004a0000000060091018800800478000000eb0045
:1004b0001a003700e284440032a0b4009905ba0063
:1004c000e284440032a0b4009906ba00e2844400f9
:1004d00032a0b4000006eb00476fde00fd07b2005b
:1004e000636ce10003003a00ebff07000000eb0043
:1004f0000a003700606ce10004003a00005deb0088
:100500008b05e900fdff3e00040037006168e10053
:10051000010032000086eb000b00070019c7ba008b
:100520001905ba000e04e00003003a000a00e000da
:10053000e0ff3a0000000600fe07b2009e018800be
:100540008a047800f5ff3700395dba008b05e900b1
:100550000c003200295dba008b05e900080032006a
:100560000c00e00003003a00e284440032a0b40032
:10057000f5ff370019ddba008b05e900faff3a00f4
:100580008904e800e184440032a0b40000000600c1
:10059000801f78003400f80000002000a0018800cf
:1005a0000000fa008440a900704080000000e800cc
:1005b000704088000080fa003400f9004f00780095
:1005c00000400600809fbe000000fa008660a9007f
:1005d0005116800000082000008060000000e0004c
:1005e00007003200511680000010200000806000db
:1005f0000000e0000200320010002000804088006f
:100600000080fa004f00be00004006000040da0003
:100610000000fe0000000500140020006f003700fd
:100620000001be00240007000470a70003f0a10031
:100630006509b100160032000d0035006828e100a0
:1006400006003500f0ff2f00f1ff27000300e00057
:1006500013003b00010028000000050000004000de
:10066000818048008502e900fcff3a00080037005d
:10067000f88f420002003c008000eb000000050003
:100680008100d1000080d3008502e800fcff3a0021
:100690000300e00002003b0060001000e080180052
:1006a000000006004f89de008201780066003700f6
:1006b0006011b80074003700c70ade00f107b2000d
:1006c000f50fb20008003200e1cf42000200320014
:1006d0000170a00024000500810f700001003200ad
:1006e0000408050044000500810f700002003a0074
:1006f000140005008502e9000000400081c04800a8
:10070000fcff3b000170a00024000500889fbe0094
:100710008a9fbe008c1f7800b0000700b70033002e
:1007200003866c006450e100240032006420e10084
:10073000270032006150e100220032006120e10018
:10074000210032008b854200eb07b1000134b80074
:10075000003ab8000804420089844a00013ab8000f
:100760000030b8008880400009014a0004003300ce
:100770000000400081804800020149008b05e9002b
:10078000c909dd0083017000010032001300200060
:10079000c814de004814dd004709de001200b20074
:1007a000c808de00088470006600070001f0a100a0
:1007b0000cf0a70001f0a000990037006120e100d3
:1007c0009b0032000801be000200be00f7ff3700a8
:1007d0006150e100fcff3a0095003700889fbe00a1
:1007e0008a9fbe00841f78007c0007004f007800bd
:1007f00011003300f0ff2f00838f6c0006003b00d8
:10080000040565000a00a7000800370009f0a600eb
:100810001000200008003700820f5400838f5c0016
:10082000030039001000200001003e0000002000fd
:1008300009f0a7000000ea004f05be004f04be000b
:100840000000e00000000600881f78000304780024
:100850000300e00007003d0060001000e080180089
:1008600060011900e081190002003b0001f02d0039
:10087000030037000400070008f0a70001f0a00003
:100880004f04780000000600889fbe008a9fbe00cb
:1008900000827000040271000482710026003200a0
:1008a0000004be000200be006011b8006b09200009
:1008b000950220000182cf000a0039000541b100f5
:1008c0000082cf00070039000541b1000982cf0046
:1008d000040039000541b1000882cf000100390051
:1008e0000541b10005425200120032000a003b00ef
:1008f00082817100610164008100d1000080d30019
:100900008984d3000884d3008b05e8000442e80002
:10091000f7ff3a00070037000804440089844c00c0
:1009200000004800818048008b05e9000442e9008e
:10093000f9ff3a00030007004f05be004f04be0058
:100940000000060081002000618055000b003d0082
:100950000b00200061fe2f000100e1001d003400ab
:1009600082817100610164008904d1000884d30090
:100970000000e800faff3a00710020006100640006
:1009800003007000020060000900320061044400ae
:10099000e0844c000988a500050032008b05e800c2
:1009a0006808e10002003a008904d1000884d300fd
:1009b000f20f20000258e10005003d00c75ddd0098
:1009c000f907b20089807500080078000000060071
:1009d0000bf827008b007800000005000004be0023
:1009e00035ff07000003be000405be000200be0084
:1009f00031ff0700844f7500000006000200be00b2
:100a00006450e100050036006420e1000200360079
:100a10000968a30001003a000800be000160a000c0
:100a20004f0678004f05be004f04be0000000600d0
:0c0a3000f0ff2f00f1ff2700f9ff370056
:020000040000fa
:100a3c000000fa009021ef009221ef009a21ef00c4
:100a4c009c21ef00a421ef00a621ef009621ef00de
:100a5c009421ef0020032000000d8800204e200080
:100a6c00f00c880020032000500d8800204e200040
:100a7c00400d8800810c800000c021000100700036
:100a8c00800c8800900c8000f001b300900c880062
:100a9c00d10c800000c0210001007000d00c880037
:100aac00e00c8000f001b300e00c8800210d800008
:100abc0000c0210001007000200d8800300d800066
:100acc00f001b300300d880092e1a900810c800088
:100adc0080ff2f00008060006000b300800c880055
:100aec009ce1a900d10c800080ff2f0000806000e9
:100afc006000b300d00c8800a6e1a900210d800095
:100b0c0080ff2f00008060006000b300200d880083
:100b1c00c062a800e064a800111a8000f0ff230056
:100b2c0000806000101a880043a3a9004463ef0002
:100b3c00011a8000f0f02f00808060000007200078
:100b4c0001007000001a88004043a800211a8000a0
:100b5c00f00f2e00008060000080a000201a88009a
:100b6c004343a8005003a8005023a80051a3a80099
:100b7c0051c3a8004143a800011a8000f0cf2f00f8
:100b8c0000806000001a88004363a800111a8000de
:100b9c0030f82f00008060004001b300101a88006c
:100bac0041e3a8009440a8000080fa000000060071
:100bbc000000fa00c982a900e384a900c842a90078
:100bcc00e244a900c002a800e004a800c022a800ca
:100bdc00e024a800c042a800e044a800c902a80074
:100bec00c8e2a80064e0a80064c0a80070e0a900f6
:100bfc0070c0a90061058000f0ff280080806000b3
:100c0c000000260001007000600588008660a900c5
:100c1c009660a8000080fa00000006000000fa00b0
:100c2c0083ff0700e2ff07000080fa0000000600c7
:100c3c000400fa0020479800ae40900060c6b30054
:100c4c0080cf500003003a00cd82a800cc42a8000f
:100c5c0002003700cd82a900cc42a90000408000e0
:100c6c000000e00001003d00630040004280de0017
:100c7c00000f7800b00c80000000e00036003a0055
:100c8c009421ef0010003700a10c80001e007800aa
:100c9c0000804000a00c8800a00c80008000eb00bd
:100cac0080fe07000200200003f0230094fe0700e2
:100cbc0058fe070000007800b00c880000a8210046
:100ccc00610020008c01070000408000800078004b
:100cdc00a00c8000808050001e00e900808f500026
:100cec00e9ff3e0000408000a00c8800a00c8000b2
:100cfc008000eb006bfe07000200200003f02300d5
:100d0c007ffe070043fe070000007800b00c88004f
:100d1c0023003700a10c80001e00780000805000da
:100d2c00a00c8800a00c80008000eb005dfe07008a
:100d3c000200200003f0230071fe070035fe0700bf
:100d4c0000007800b00c880000a821006100200091
:100d5c00690107000100370000000000a10c8000b1
:100d6c0000408000808050001e00e900808f500001
:100d7c00e8ff3e0000408000a00c8800a00c800022
:100d8c008000eb0047fe07000200200003f0230068
:100d9c005bfe07001ffe070000007800b00c880007
:100dac000080fa00000006000600fa00881f780098
:100dbc00004f780012079800230798001e0090003f
:100dcc00ae00900013fe0700800078000032200077
:100ddc000088b90000017800605525000090b9002a
:100dec004f91de0002805000cf80de002afe07000b
:100dfc00100798002107980060c6b3009e40780049
:100e0c0080cf500015003a00cd82a800cc42a8003b
:100e1c00004080000040780085ff070000000000c3
:100e2c0070408000cf80de001bfe070018c0b300ae
:100e3c001e019000ae019000f4fd07000000e000e0
:100e4c00010035000044eb000804e000f4ff3a0018
:100e5c009621ef000e28ef001800370020c6b300d3
:100e6c009e40780080cf500014003a00cd82a9003b
:100e7c00cc42a90000408000004078006cff0700c5
:100e8c000000000070408000cf80de0002fe0700f2
:100e9c0018c0b3001e019000ae019000dbfd0700ee
:100eac000000e000010035000044eb000804e00005
:100ebc00f4ff3a009621ef000e28ef004f04780063
:100ecc000080fa00000006000400fa00000f780011
:100edc00214798001e01780030d822000090b900fc
:100eec00c488de004f90de0080805000c0122000cd
:100efc000088b90000007800000f7800200720005f
:100f0c009e007800808f50000c003a00cd82a80023
:100f1c00cc42a900004080000040780044ff07004c
:100f2c0000000000704080009e0f5000fdff350057
:100f3c009621ef000e28ef000b003700cd82a900a0
:100f4c00cc42a800004080000040780038ff070029
:100f5c0000000000704080009e0f5000fdff350027
:100f6c009621ef000e28ef000080fa00000006002a
:100f7c000000fa00cd82a800cc42a900004828004d
:100f8c00e1012000dc0007000e28ef00cd82a90053
:100f9c00cc42a800cd82a800cc42a80000000000e2
:100fac00104080008000780000188000808f500076
:100fbc000a00360020408000800078001018800065
:100fcc00808f500005003600304080008000780093
:100fdc00d0188000808f5000f1ff3e001040800040
:100fec008000780000188000808f500006003100cf
:100ffc009621ef000e28ef0021c7b300a0052000ba
:10100c00b1ff0700150037002040800080007800f9
:10101c0010188000808f5000060031009621ef00e0
:10102c000e28ef0021c7b300400b2000a6ff0700dd
:10103c000a0037003040800080007800d018800013
:10104c00808f5000050031009621ef000e28ef0034
:10105c00c1c6b300a00520009bff07000080fa006a
:10106c00000006000200fa00004f7800c0c6b30072
:10107c009e40780080cf500003003a004040800032
:10108c00000d880010003700d0c6b3009e407800d9
:10109c0080cf500003003a0050408000000d8800c3
:1010ac000900370020c7b3009e40780080cf500065
:1010bc0003003a0060408000000d880002003700f9
:1010cc0060c6b3000100370000c7b3000080fa000f
:1010dc00000006000200fa0010408000800078003a
:1010ec0000188000808f500003003100c0c6b30090
:1010fc00004f7800120037002040800080007800fc
:10110c0010188000808f500003003100d0c6b3004f
:10111c00004f78000a0037003040800080007800d3
:10112c00d0188000808f50000300310020c7b3001e
:10113c00004f78000200370050c7b300004f780012
:10114c001e4078000080fa00000006000200fa0041
:10115c009021ef009221ef00810c800000c0210053
:10116c0001007000800c8800900c8000f001b3002e
:10117c00900c880092e1a900810c800080ff2f0068
:10118c00008060006000b300800c8800c982a90058
:10119c00e384a900c842a900e244a900c002a80047
:1011ac00e004a800c022a800e024a800c042a800c7
:1011bc00e044a800111a8000f0ff230000806000ba
:1011cc00101a880043a3a9004463ef00011a8000a1
:1011dc00f0f02f00808060000007200001007000fc
:1011ec00001a88004043a800211a8000f00f2e003e
:1011fc00008060000080a000201a88004343a800f3
:10120c005003a8004143a800011a8000f0cf2f0022
:10121c0000806000001a88004363a800111a800047
:10122c0030f82f0000806000c000b300101a880056
:10123c0041e3a8009021ef009221ef00810c800087
:10124c0000c0210001007000800c8800900c800010
:10125c00f001b300900c880092e1a900810c800091
:10126c0080ff2f00008060006000b300800c8800bd
:10127c0010002000000f78000000eb00000f780039
:10128c00f0f32100a00c880000fa2000b00c8800bc
:10129c00cd82a800cc42a90000882500f1042000d2
:1012ac00150007009621ef0000242400f100200017
:1012bc0011000700cd82a900cc42a90000fa200041
:1012cc00b00c88001040800080007800001880006e
:1012dc00808f500003003100009425000102200093
:1012ec00050007009621ef0000d02200111320000a
:0812fc0001000700e0ff3700cc
:020000040000fa
:10130400f03fb1000180b10006003500ee03090092
:1013140000000000403fb1000180b100fbff3d0030
:101324001000b000203fb00002003500008009002a
:081334000000000000000600ab
:020000040000fa
:10133c000e0800000400000000000000000800007f
:10134c000e000000020000003f1fa3000451040027
:10135c00a1043e00005d00007d00000000000000c4
:020000040000fa
:0200000401f009
:04000c00f8ff0000f9
:00000001FF
